:020000040800F2
:1000000000000220D5790008190C00081F0C000818
:10001000250C00082B0C0008310C00080000000023
:10002000000000000000000000000000370C000885
:10003000450C000800000000530C0008610C00088B
:10004000257A0008257A0008257A0008257A000814
:10005000257A0008257A0008257A0008257A000804
:10006000257A0008257A0008257A0008257A0008F4
:10007000257A0008257A0008257A0008257A0008E4
:10008000257A0008257A0008257A0008257A0008D4
:10009000257A0008257A0008257A0008257A0008C4
:1000A000257A0008257A0008257A0008257A0008B4
:1000B000257A0008257A0008257A0008257A0008A4
:1000C000257A0008257A0008257A0008257A000894
:1000D000257A0008257A0008257A0008257A000884
:1000E000257A0008257A0008257A0008257A000874
:1000F000257A0008257A0008257A0008257A000864
:10010000257A0008257A0008257A0008257A000853
:10011000257A0008257A0008257A0008257A000843
:10012000257A0008257A0008257A0008257A000833
:10013000257A0008257A0008257A0008257A000823
:10014000257A0008257A0008257A00086D0C000839
:10015000257A0008257A0008257A0008257A000803
:10016000257A0008257A0008257A0008257A0008F3
:10017000257A0008257A0008257A0008000000008A
:08018000257A0008257A000829
:1001880010B5054C237833B9044B13B10448AFF3C9
:1001980000800123237010BD9000002000000000A3
:1001A800287C000808B5034B1BB103490348AFF38B
:1001B800008008BD0000000094000020287C000892
:1001C80053B94AB9002908BF00281CBF4FF0FF31B6
:1001D8004FF0FF3000F07AB9ADF1080C6DE904CEAC
:1001E80000F006F8DDF804E0DDE9022304B070470A
:1001F8002DE9F0478C460D460446089E002B51D148
:100208008A4217466DD9B2FA82FEBEF1000F0BD0B2
:10021800CEF1200C01FA0EF520FA0CFC02FA0EF7CA
:100228004CEA050C00FA0EF44FEA174A250CBCFB01
:10023800FAF81FFA87F90AFB18CC45EA0C4508FBBF
:1002480009F3AB420AD9ED1908F1FF3280F0238196
:10025800AB4240F22081A8F102083D44ED1AA4B255
:10026800B5FBFAF00AFB105544EA054400FB09F90E
:10027800A14509D9E41900F1FF3380F00A81A145AD
:1002880040F2078102383C44A4EB090440EA0840E4
:100298000021002E61D024FA0EF40023346073602C
:1002A800BDE8F0878B4207D9002E54D0002186E89C
:1002B80021000846BDE8F087B3FA83F1002940F031
:1002C8008E80AB4202D3824200F2FA80841A65EB38
:1002D80003050120AC46002E3FD086E81010BDE88B
:1002E800F08712B90127B7FBF2F7B7FA87FEBEF11C
:1002F800000F34D1EB1B3A0C1FFA87FC0121B3FB2A
:10030800F2F8250C02FB183345EA03450CFB08F309
:10031800AB4207D9ED1908F1FF3002D2AB4200F227
:10032800D1808046ED1AA3B2B5FBF2F002FB10555E
:1003380043EA05440CFB00FCA44507D9E41900F185
:10034800FF3302D2A44500F2B8801846A4EB0C048F
:1003580040EA08409DE731463046BDE8F087CEF1D7
:10036800200405FA0EF307FA0EF720FA04F83A0CFF
:1003780025FA04F448EA0308B4FBF2F14FEA1845F9
:1003880002FB11441FFA87FC45EA044501FB0CF304
:10039800AB4200FA0EF409D9ED1901F1FF3080F0F3
:1003A8008A80AB4240F2878002393D44EB1A1FFA3B
:1003B80088F5B3FBF2F002FB103345EA034500FB76
:1003C8000CF3AB4207D9ED1900F1FF386FD2AB42FD
:1003D8006DD902383D44EB1A40EA01418FE7C1F17B
:1003E800200722FA07F88B4005FA01F448EA0303CC
:1003F80020FA07FE4FEA134CFD404EEA040EB5FB07
:10040800FCF94FEA1E440CFB19551FFA83F844EA1D
:10041800054509FB08F4AC4202FA01F200FA01FAB8
:1004280008D9ED1809F1FF3043D2AC4241D9A9F1FE
:1004380002091D442D1B1FFA8EFEB5FBFCF00CFBB8
:1004480010554EEA054400FB08F8A04507D9E41802
:1004580000F1FF3529D2A04527D902381C4440EACB
:100468000940A4EB0804A0FB02894C45C6464D464A
:1004780015D312D056B1BAEB0E0364EB050404FA97
:1004880007F7CB401F43CC40376074600021BDE8BC
:10049800F0871846F8E69046E0E6C245EAD2B8EB9F
:1004A800020E69EB03050138E4E72846D7E7404622
:1004B80091E78146BEE7014678E702383C4445E7C4
:1004C800084608E7A8F102083D442BE7704700BF3B
:1004D80080B58CB000AF07F11C0300221A605A6087
:1004E8009A60DA601A610023BB61714A704B1B6B1A
:1004F80043F0100313636E4B1B6B03F01003BB61D7
:10050800BB6900237B616A4A694B1B6B43F0040398
:100518001363674B1B6B03F004037B617B69002348
:100528003B61634A624B1B6B43F080031363604B70
:100538001B6B03F080033B613B690023FB605C4A53
:100548005B4B1B6B43F001031363594B1B6B03F0AD
:100558000103FB60FB680023BB60554A544B1B6BCF
:1005680043F002031363524B1B6B03F00203BB609F
:10057800BB6800237B604E4A4D4B1B6B43F008035E
:1005880013634B4B1B6B03F008037B607B680022F3
:100598000821484800F004FF01220121464800F0E4
:1005A800FFFE00224FF21001444800F0F9FE082334
:1005B800FB6101233B6200237B620023BB6207F1DE
:1005C8001C0319463B4800F039FD0123FB61012358
:1005D8003B6200237B620023BB6207F11C031946C0
:1005E800354800F02BFD0823FB6102233B62002302
:1005F8007B620023BB620523FB6207F11C031946DB
:100608002D4800F01BFD0123FB6100233B62002302
:100618007B6207F11C031946294800F00FFD0423EB
:10062800FB6100233B6200237B6207F11C03194630
:10063800244800F003FD4FF48063FB6102233B6212
:1006480000237B620023BB620523FB6207F11C03C6
:1006580019461C4800F0F2FC4FF21003FB6101231D
:100668003B6200237B620023BB6207F11C0319462F
:10067800124800F0E3FC2023FB6100233B620023C7
:100688007B6207F11C0319460C4800F0D7FC0223D3
:10069800FB610D4B3B6200237B6207F11C0319468B
:1006A800044800F0CBFC00BF3037BD4680BD00BF1A
:1006B800003802400010024000080240000C0240CE
:1006C80000000240000402400000121080B500AF94
:1006D800124B134A1A60114B124A5A600F4B0022F0
:1006E8009A600E4B0022DA600C4B4FF480421A617C
:1006F8000A4B00225A61094B00229A61074B0022DB
:10070800DA61064B00221A62044802F0E1FB034654
:10071800002B01D000F0D2F900BF80BDBC00002042
:1007280000540040A086010080B58AB000AF786010
:1007380007F1140300221A605A609A60DA601A619D
:100748007B681B68194A93422CD100233B61184AE5
:10075800174B1B6B43F002031363154B1B6B03F022
:1007680002033B613B694FF410737B611223BB6149
:100778000123FB6100233B6204237B6207F114031E
:1007880019460C4800F05AFC0023FB60084A084B45
:100798001B6C43F400131364054B1B6C03F4001328
:1007A800FB60FB6800BF2837BD4680BD0054004091
:1007B800003802400004024080B500AF134B144AD1
:1007C8001A60124B4FF400725A60104B00229A6064
:1007D8000E4B0022DA600D4B4FF400721A610B4B7E
:1007E8000C4A5A61094B00229A61084B0022DA61CF
:1007F800064B00221A62054802F0A2FC0346002BB1
:1008080001D000F05BF900BF80BD00BF10010020DF
:10081800003C00400077010080B58AB000AF7860E6
:1008280007F1140300221A605A609A60DA601A61AC
:100838007B681B68284A93424AD100233B61274AB8
:10084800264B1B6C43F400431364244B1B6C03F4CA
:1008580000433B613B690023FB60204A1F4B1B6B35
:1008680043F0010313631D4B1B6B03F00103FB6093
:10087800FB680023BB60194A184B1B6B43F0040349
:100888001363164B1B6B03F00403BB60BB68102398
:100898007B610223BB610023FB6100233B620623CB
:1008A8007B6207F1140319460D4800F0C7FB4FF4AB
:1008B800A4537B610223BB610023FB6100233B62DD
:1008C80006237B6207F114031946064800F0B6FBBD
:1008D80000BF2837BD4680BD003C004000380240BC
:1008E800000002400008024080B500AF00F002FAA4
:1008F80000F062F8FFF7ECFDFFF7E8FEFFF75CFF9A
:1009080000F0E0F806F05CFD00224FF48051284822
:1009180000F046FD00224FF40051254800F040FD4C
:1009280000224FF48041224800F03AFD00224FF4A3
:1009380000411F4800F034FD01211E4800F018FD59
:100948000346012B18D101224FF48051184800F0BA
:1009580027FD01224FF40051154800F021FD012226
:100968004FF48041124800F01BFD01224FF4004172
:100978000F4800F015FD17E000224FF480510C4895
:1009880000F00EFD00224FF40051094800F008FD68
:1009980000224FF48041064800F002FD00224FF487
:1009A8000041034800F0FCFC06F030FDC4E700BF3E
:1009B800000C02400000024080B598B000AF07F17B
:1009C800300330220021184607F064F807F11C03B1
:1009D80000221A605A609A60DA601A6107F10C0303
:1009E80000221A605A609A60DA600023BB60314ABC
:1009F800304B1B6C43F0805313642E4B1B6C03F07D
:100A08008053BB60BB6800237B602B4A2A4B1B6862
:100A180043F480431360284B1B6803F480437B60D6
:100A28007B6801233B634FF480337B630223BB6401
:100A38004FF48003FB6408233B654FF4A8737B6580
:100A48000223BB650723FB6507F13003184603F053
:100A580015F80346002B01D000F030F80F23FB6196
:100A680002233B6200237B624FF4A053BB624FF426
:100A78008053FB6207F11C030521184603F076FA40
:100A88000346002B01D000F019F80123FB60C023B6
:100A98003B6102237B6107F10C03184603F044FC19
:100AA8000346002B01D000F009F800BF6037BD46AF
:100AB80080BD00BF003802400070004080B400AF25
:100AC80072B6FEE780B500AF174B184A1A60164B8E
:100AD8004FF482725A60144B00229A60124B002223
:100AE800DA60114B00221A610F4B00225A610E4B3B
:100AF8004FF400729A610C4B0022DA610A4B002213
:100B08001A62094B00225A62074B00229A62064B6E
:100B18000A22DA62044803F045FD0346002B01D09F
:100B2800FFF7CCFF00BF80BD580100200030014016
:100B380080B58AB000AF786007F1140300221A600C
:100B48005A609A60DA601A617B681B68194A934296
:100B58002BD100233B61184A174B5B6C43F480533D
:100B68005364154B5B6C03F480533B613B69002372
:100B7800FB60114A104B1B6B43F0010313630E4BD0
:100B88001B6B03F00103FB60FB68E0237B6102231E
:100B9800BB610023FB6100233B6205237B6207F1F5
:100BA80014031946054800F049FA00BF2837BD4626
:100BB80080BD00BF00300140003802400000024004
:100BC80080B582B000AF00237B60104A0F4B5B6C8E
:100BD80043F4804353640D4B5B6C03F480437B60A8
:100BE8007B6800233B60094A084B1B6C43F0805329
:100BF8001364064B1B6C03F080533B603B68072073
:100C080000F0DAF900BF0837BD4680BD0038024061
:100C180080B400AFFEE780B400AFFEE780B400AF59
:100C2800FEE780B400AFFEE780B400AFFEE780B413
:100C380000AF00BFBD465DF8047B704780B400AFCD
:100C480000BFBD465DF8047B704780B400AF00BFAD
:100C5800BD465DF8047B704780B500AF00F09CF896
:100C680000BF80BD80B500AF024800F01DFE00BF88
:100C780080BD00BF8C05002080B584B000AF7860CF
:100C8800114B1B68002B02D10F4B104A1A600E4BF8
:100C98001B68FB600C4B1A687B6813446A469342D6
:100CA80007D906F0BDFE02460C2313604FF0FF3350
:100CB80006E0054B1A687B681344034A1360FB6817
:100CC80018461037BD4680BDAC00002094080020AF
:100CD80080B400AF064A064BD3F8883043F470035B
:100CE800C2F8883000BFBD465DF8047B704700BF7E
:100CF80000ED00E080B500AF0E4A0E4B1B6843F4D0
:100D0800007313600B4A0B4B1B6843F4806313603A
:100D1800084A084B1B6843F480731360032000F0F3
:100D28004BF9002000F008F8FFF74AFF00231846A7
:100D380080BD00BF003C024080B582B000AF786043
:100D4800124B1A68124B1B7819464FF47A73B3FB8F
:100D5800F1F3B2FBF3F3184600F063F90346002BF6
:100D680001D001230EE07B680F2B0AD80022796896
:100D78004FF0FF3000F02BF9064A7B681360002320
:100D880000E0012318460837BD4680BD000000205A
:100D9800080000200400002080B400AF064B1B7838
:100DA8001A46064B1B681344044A136000BFBD462D
:100DB8005DF8047B704700BF08000020B0010020E8
:100DC80080B400AF034B1B681846BD465DF8047B32
:100DD800704700BFB001002080B584B000AF7860D4
:100DE800FFF7EEFFB8607B68FB60FB68B3F1FF3F7D
:100DF80005D0094B1B781A46FB681344FB6000BFFB
:100E0800FFF7DEFF0246BB68D21AFB689A42F7D3A7
:100E180000BF1037BD4680BD0800002080B485B0F3
:100E280000AF78607B6803F00703FB600C4BDB685E
:100E3800BB60BA684FF6FF031340BB60FB681A0239
:100E4800BB68134343F0BF6343F40033BB60044AF9
:100E5800BB68D36000BF1437BD465DF8047B70479C
:100E680000ED00E080B400AF044BDB681B0A03F020
:100E780007031846BD465DF8047B704700ED00E0A7
:100E880080B483B000AF0346FB7197F90730002B9D
:100E98000BDB094997F907305B09FA7902F01F0261
:100EA800012000FA02F241F8232000BF0C37BD46AA
:100EB8005DF8047B704700BF00E100E080B483B0B8
:100EC80000AF03463960FB7197F90730002B0ADB46
:100ED8000D4997F907303A68D2B21201D2B20B44E1
:100EE80083F800230AE00949FB7903F00F03043B68
:100EF8003A68D2B21201D2B20B441A7600BF0C374C
:100F0800BD465DF8047B704700E100E000ED00E0BD
:100F180080B489B000AFF860B9607A60FB6803F00C
:100F28000703FB61FB69C3F10703042B28BF0423F4
:100F3800BB61FB690433062B02D9FB69033B00E064
:100F480000237B610122BB6902FA03F35A1EBB68C6
:100F58001A407B699A4001217B6901FA03F3591E03
:100F68007B680B40134318462437BD465DF8047B65
:100F78007047000080B582B000AF78607B68013BA5
:100F8800B3F1807F01D301230FE00A4A7B68013B5C
:100F980053600F214FF0FF30FFF790FF054B002201
:100FA8009A60044B07221A60002318460837BD468A
:100FB80080BD00BF10E000E080B582B000AF78606F
:100FC8007868FFF72BFF00BF0837BD4680BD80B5A6
:100FD80086B000AF0346B9607A60FB7300237B617B
:100FE800FFF740FF78617A68B9687869FFF790FF82
:100FF800024697F90F3011461846FFF75FFF00BF0A
:101008001837BD4680BD80B582B000AF0346FB717E
:1010180097F907301846FFF733FF00BF0837BD467A
:1010280080BD80B582B000AF78607868FFF7A2FF16
:10103800034618460837BD4680BD000080B489B015
:1010480000AF7860396000237B6100233B61002397
:10105800BB610023FB616BE10122FB6902FA03F328
:101068007B613B681A687B6913403B613A697B691D
:101078009A4240F05A813B685B6803F00303012BF6
:1010880005D03B685B6803F00303022B30D17B6813
:101098009B68BB61FB695B00032202FA03F3DB4335
:1010A800BA691340BB613B68DA68FB695B0002FA06
:1010B80003F3BA691343BB617B68BA699A607B68BA
:1010C8005B68BB610122FB6902FA03F3DB43BA697F
:1010D8001340BB613B685B681B0903F00102FB69B5
:1010E80002FA03F3BA691343BB617B68BA695A60B1
:1010F8003B685B6803F00303032B17D07B68DB684E
:10110800BB61FB695B00032202FA03F3DB43BA69A4
:101118001340BB613B689A68FB695B0002FA03F302
:10112800BA691343BB617B68BA69DA603B685B687C
:1011380003F00303022B23D1FB69DA087B6808322A
:1011480053F82230BB61FB6903F007039B000F22B1
:1011580002FA03F3DB43BA691340BB613B681A69BF
:10116800FB6903F007039B0002FA03F3BA69134310
:10117800BB61FB69DA087B680832B96943F8221059
:101188007B681B68BB61FB695B00032202FA03F3FF
:10119800DB43BA691340BB613B685B6803F0030239
:1011A800FB695B0002FA03F3BA691343BB617B680E
:1011B800BA691A603B685B6803F08053002B00F043
:1011C800B4800023FB605F4A5E4B5B6C43F4804352
:1011D80053645C4B5B6C03F48043FB60FB685A4AC6
:1011E800FB699B08023352F82330BB61FB6903F0AB
:1011F80003039B000F2202FA03F3DB43BA6913408F
:10120800BB617B68514A93422BD07B68504A93421A
:1012180025D07B684F4A93421FD07B684E4A934241
:1012280019D07B684D4A934213D07B684C4A93424D
:101238000DD07B684B4A934207D07B684A4A934259
:1012480001D107230EE008230CE006230AE005235A
:1012580008E0042306E0032304E0022302E001235C
:1012680000E00023FA6902F0030292009340BA6991
:101278001343BB613449FB699B080233BA6941F8DF
:1012880023203A4B1B68BB613B69DB43BA691340B7
:10129800BB613B685B6803F48033002B03D0BA69F9
:1012A8003B691343BB61314ABB6913602F4B5B68D1
:1012B800BB613B69DB43BA691340BB613B685B6850
:1012C80003F40033002B03D0BA693B691343BB61B5
:1012D800264ABB695360254B9B68BB613B69DB436E
:1012E800BA691340BB613B685B6803F48013002B49
:1012F80003D0BA693B691343BB611C4ABB6993605D
:101308001A4BDB68BB613B69DB43BA691340BB61BD
:101318003B685B6803F40013002B03D0BA693B6990
:101328001343BB61114ABB69D360FB690133FB619D
:10133800FB690F2B7FF690AE00BF2437BD465DF8E2
:10134800047B70470038024000380140000002402A
:101358000004024000080240000C02400010024055
:101368000014024000180240001C0240003C0140EA
:1013780080B485B000AF78600B467B807B681A69C3
:101388007B881340002B02D00123FB7301E000236C
:10139800FB73FB7B18461437BD465DF8047B70472A
:1013A80080B483B000AF78600B467B8013467B70B7
:1013B8007B78002B03D07A887B689A6103E07B886E
:1013C8001A047B689A6100BF0C37BD465DF8047B40
:1013D8007047F0B58FB00AAF78607B68002B01D1F9
:1013E800012354E07B681B68FB607B6893F8F93243
:1013F800DBB2002B06D17B68002283F8F8227868DC
:1014080006F03CF87B68032283F8F922FB68DB6B63
:1014180003F48073002B02D17B6800221A617B6879
:101428001B68184603F0B8F97B681B683B607E6848
:101438006D4606F110040FCC0FC50FCC0FC594E80C
:10144800030085E80300331D0ECB386803F032F93A
:101458007B681B680121184603F0AFF97B681B689D
:101468003B607E686D4606F110040FCC0FC50FCCAB
:101478000FC594E8030085E80300331D0ECB3868D8
:1014880003F0C2FA7B68012283F8F9220023184688
:101498001437BD46F0BD90B589B004AF78600846F2
:1014A80011461A460346FB700B46BB7013467B7009
:1014B8007B6893F8F832012B01D1022376E07B6830
:1014C800012283F8F822FB787A682C2101FB03F3C8
:1014D80013443D3300221A70FB787A682C2101FBF3
:1014E80003F3134438337A781A70FB787A682C211E
:1014F80001FB03F3134440333A8D1A80FB787A6872
:101508002C2101FB03F313443933FA781A70FB7862
:101518007A682C2101FB03F313443F3397F8242006
:101528001A70FB78BA7802F07F02D0B27A682C2160
:1015380001FB03F313443A3302461A7097F9023059
:10154800002B09DAFB787A682C2101FB03F313449A
:101558003B3301221A7008E0FB787A682C2101FBE2
:1015680003F313443B3300221A70FB787A682C216A
:1015780001FB03F313443C3397F820201A707B686F
:1015880018687C78BA78F9783B8D029397F82430FC
:10159800019397F820300093234603F0BFFB0346DE
:1015A800FB737B68002283F8F822FB7B184614370C
:1015B800BD4690BD80B584B000AF78600B46FB7027
:1015C8000023FB737B6893F8F832012B01D10223C7
:1015D8000FE07B68012283F8F8227B681B68FA78A1
:1015E8001146184603F009FE7B68002283F8F822AA
:1015F800FB7B18461037BD4680BD000080B582B021
:1016080000AF7860084611461A460346FB700B4641
:10161800BB7013467B70FB787A682C2101FB03F3BF
:1016280013443B33BA781A70FB787A682C2101FB93
:1016380003F313443F337A781A703B7C002B12D1A2
:10164800FB787A682C2101FB03F31344423303220D
:101658001A70FB787A682C2101FB03F313443D339D
:101668003A7F1A7008E0FB787A682C2101FB03F3B3
:101678001344423302221A707B78032B00F2C6808F
:1016880001A252F823F000BFA116000801180008B3
:1016980005170008831700083B7C012B40F0B88031
:1016A800BB78002B40F0B4803B8B002B08D1FB7833
:1016B8007A682C2101FB03F31344553301221A7075
:1016C800FB787A682C2101FB03F3134455331B780C
:1016D800002B09D1FB787A682C2101FB03F3134412
:1016E800423300221A7093E0FB787A682C2101FBC0
:1016F80003F31344423302221A7089E0BB78002BAB
:101708001DD1FB787A682C2101FB03F31344553370
:101718001B78002B09D1FB787A682C2101FB03F395
:101728001344423300221A7073E0FB787A682C2144
:1017380001FB03F31344423302221A7069E0FB7879
:101748007A682C2101FB03F3134454331B78002BD4
:1017580009D1FB787A682C2101FB03F31344423347
:1017680000221A7055E0FB787A682C2101FB03F3FC
:101778001344423302221A704BE0BB78002B1DD170
:10178800FB787A682C2101FB03F3134455331B784B
:10179800002B09D1FB787A682C2101FB03F3134451
:1017A800423300221A7034E0FB787A682C2101FB5E
:1017B80003F31344423302221A702AE0FB787A6852
:1017C8002C2101FB03F3134454331B78002B09D15C
:1017D800FB787A682C2101FB03F31344423300227F
:1017E8001A7016E0FB787A682C2101FB03F3134486
:1017F800423302221A700CE0FB787A682C2101FB34
:1018080003F31344423300221A7002E000BF00E0E1
:1018180000BFFB787A682C2101FB03F3134444339F
:101828007A691A60FB783A8B79682C2000FB03F3FD
:101838000B444C331A60FB787A682C2101FB03F3C4
:101848001344603300221A70FB787A682C2101FB5C
:1018580003F31344503300221A60FB787A682C2172
:1018680001FB03F313443933FA781A70FB787A686A
:101878002C2101FB03F31344613300221A707B68A7
:101888001868FB782C2202FB03F338337A68D118E6
:101898007B681B69DBB21A4603F056FB0346184601
:1018A8000837BD4680BD00BF80B586B000AF786000
:1018B8007B681B683B613B69FB607B681B6818465B
:1018C80003F05FF80346012B40F0EF807B681B684C
:1018D800184603F043F80346002B00F0E5807B68C8
:1018E8001B68184603F03AF8034603F40013B3F5EF
:1018F800001F04D17B681B684FF400125A617B6893
:101908001B68184603F02AF8034603F48013B3F55E
:10191800801F04D17B681B684FF480125A617B6872
:101928001B68184603F01AF8034603F08063B3F106
:10193800806F04D17B681B684FF080625A617B68B6
:101948001B68184603F00AF8034603F00203022B4B
:1019580003D17B681B6802225A617B681B681846A2
:1019680002F0FCFF034603F00053B3F1005F15D10A
:101978007B681B684FF000525A61FB6803F5886367
:101988001B6803F00103002B08D1786805F0F4FD0B
:101998007B681B680121184603F0F4F87B681B6814
:1019A800184602F0DBFF034603F08073B3F1807F33
:1019B80002D1786801F018FA7B681B68184602F0B3
:1019C800CDFF034603F00803082B06D1786805F01D
:1019D800B7FD7B681B6808225A617B681B6818463C
:1019E80002F0BCFF034603F01003102B01D10123C2
:1019F80000E00023002B12D07B681B687A6812680D
:101A0800926922F010029A61786801F01CF97B68EB
:101A18001B687A681268926942F010029A617B68C2
:101A28001B68184602F09AFF034603F00073B3F1EF
:101A3800007F3AD17B681B68184603F0CDFBB8607D
:101A480000237B6125E07B6903F00F03BA6822FA63
:101A580003F303F00103002B18D07B695A01FB68DC
:101A6800134403F5A0631B6803F40043B3F5004F68
:101A780006D17B69DBB21946786800F0ABF805E05F
:101A88007B69DBB21946786800F0D4FC7B690133C6
:101A98007B617B689A687B699A42D4D87B681B68AB
:101AA8004FF000725A6100E000BF1837BD4680BD94
:101AB80080B582B000AF78607B6893F8F832012B6C
:101AC80001D1022313E07B68012283F8F8227B68A6
:101AD8001B68184602F04FFE7B681B6801211846F8
:101AE80003F0B8F87B68002283F8F8220023184630
:101AF8000837BD4680BD80B582B000AF78607B688E
:101B080093F8F832012B01D102230DE07B68012202
:101B180083F8F8227B681B68184603F0D1FC7B68C1
:101B2800002283F8F822002318460837BD4680BDF6
:101B380080B582B000AF78607B681B68184603F0F8
:101B48005DF8034618460837BD4680BD80B483B0AB
:101B580000AF78600B46FB70FB787A682C2101FB9C
:101B680003F3134460331B7818460C37BD465DF801
:101B7800047B704780B483B000AF78600B46FB707D
:101B8800FB787A682C2101FB03F3134450331B685C
:101B980018460C37BD465DF8047B704780B582B0A7
:101BA80000AF78607B681B68184603F0A5F8034609
:101BB80018460837BD4680BD80B582B000AF786052
:101BC8007B681B68184603F080F8034618460837F8
:101BD800BD4680BD80B586B000AF78600B46FB700F
:101BE8007B681B687B617B693B61FB78FB60FB68FA
:101BF8005A013B69134403F5A0639B6803F004038F
:101C0800042B1AD1FB685A013B69134403F5A063FE
:101C18001A4604239360FB685A013B69134403F591
:101C2800A0631946FB685A013B69134403F5A06396
:101C3800DB6843F00203CB6005E1FB685A013B69AE
:101C4800134403F5A0639B6803F48073B3F5807FA6
:101C58002CD1FB685A013B69134403F5A0631A466B
:101C68004FF4807393607A68FB682C2101FB03F3BF
:101C78001344613307221A70FB685A013B69134405
:101C880003F5A0631946FB685A013B69134403F541
:101C9800A063DB6843F00203CB607B681B68FA68CB
:101CA800D2B21146184603F0A8FACCE0FB685A01F4
:101CB8003B69134403F5A0639B6803F02003202BC2
:101CC80009D1FB685A013B69134403F5A0631A461E
:101CD80020239360B7E0FB685A013B69134403F57E
:101CE800A0639B6803F00803082B34D1FB685A01F2
:101CF8003B69134403F5A0631946FB685A013B6925
:101D0800134403F5A063DB6843F00203CB607A68F1
:101D1800FB682C2101FB03F31344613305221A707D
:101D2800FB685A013B69134403F5A0631A46102364
:101D38009360FB685A013B69134403F5A0631A4694
:101D4800082393607B681B68FA68D2B2114618466C
:101D580003F053FA77E0FB685A013B69134403F533
:101D6800A0639B6803F48063B3F5806F35D1FB688B
:101D78005A013B69134403F5A0631946FB685A01ED
:101D88003B69134403F5A063DB6843F00203CB60AF
:101D98007A68FB682C2101FB03F3134461330822A2
:101DA8001A70FB685A013B69134403F5A0631A468D
:101DB80010239360FB685A013B69134403F5A06341
:101DC8001A464FF4806393607B681B68FA68D2B246
:101DD8001146184603F011FA35E0FB685A013B69D1
:101DE800134403F5A0639B6803F08003802B2AD17A
:101DF800FB685A013B69134403F5A0631946FB6865
:101E08005A013B69134403F5A063DB6843F00203FE
:101E1800CB607A68FB682C2101FB03F31344613320
:101E280006221A707B681B68FA68D2B211461846F7
:101E380003F0E3F9FB685A013B69134403F5A06317
:101E48001A4680239360FB685A013B69134403F5E3
:101E5800A0639B6803F40073B3F5007F23D1FB688C
:101E68005A013B69134403F5A0631946FB685A01FC
:101E78003B69134403F5A063DB6843F00203CB60BE
:101E88007B681B68FA68D2B21146184603F0B5F9A8
:101E9800FB685A013B69134403F5A0631A464FF4E3
:101EA80000739360C2E2FB685A013B69134403F56F
:101EB800A0639B6803F00103012B40F01F817B683E
:101EC8001B69002B19D07A68FB682C2101FB03F3EE
:101ED800134448331A68FB6859013B690B4403F5FE
:101EE800A0631B69C3F31203D21A7968FB682C201C
:101EF80000FB03F30B4450331A607A68FB682C210B
:101F080001FB03F31344613301221A707A68FB68FA
:101F18002C2101FB03F313445C3300221A60FB6895
:101F28005A013B69134403F5A0631A4601239360E1
:101F38007A68FB682C2101FB03F313443F331B78B9
:101F4800002B09D07A68FB682C2101FB03F31344AA
:101F58003F331B78022B22D1FB685A013B6913449B
:101F680003F5A0631946FB685A013B69134403F55E
:101F7800A063DB6843F00203CB607B681B68FA68E8
:101F8800D2B21146184603F038F9FB685A013B698A
:101F9800134403F5A0631A461023936069E07A6836
:101FA800FB682C2101FB03F313443F331B78032BFD
:101FB80029D1FB685A013B69134403F5A06319460C
:101FC800FB685A013B69134403F5A0631B6843F09F
:101FD80000530B607A68FB682C2101FB03F3134460
:101FE800603301221A70FB68D8B27A68FB682C212A
:101FF80001FB03F3134460331B781A4601467868E3
:1020080005F0C8FA35E07A68FB682C2101FB03F378
:1020180013443F331B78012B2BD17A68FB682C21A2
:1020280001FB03F31344603301221A707A68FB68DA
:102038002C2101FB03F3134454331B7883F0010371
:10204800D8B27A68FB682C2101FB03F3134454339C
:1020580002461A70FB68D8B27A68FB682C2101FB2B
:1020680003F3134460331B781A460146786805F079
:1020780091FA7B681B69012B2BD17A68FB682C21AC
:1020880001FB03F3134448331B687968FA682C2072
:1020980000FB02F20A4440321288B3FBF2F303F069
:1020A8000103002B00F0C2817A68FB682C2101FB38
:1020B80003F3134454331B7883F00103D8B27A68CE
:1020C800FB682C2101FB03F31344543302461A70B6
:1020D800ACE17A68FB682C2101FB03F31344543309
:1020E8001B7883F00103D8B27A68FB682C2101FBC6
:1020F80003F31344543302461A7097E1FB685A01FC
:102108003B69134403F5A0639B6803F00203022BA9
:1021180040F00881FB685A013B69134403F5A0634A
:102128001946FB685A013B69134403F5A063DB6851
:1021380023F00203CB607A68FB682C2101FB03F3D0
:10214800134461331B78012B09D17A68FB682C2171
:1021580001FB03F31344603301221A70C9E07A6863
:10216800FB682C2101FB03F3134461331B78052B17
:1021780009D17A68FB682C2101FB03F3134460330F
:1021880005221A70B5E07A68FB682C2101FB03F37D
:10219800134461331B78062B09D07A68FB682C211D
:1021A80001FB03F3134461331B78082B50D17A6881
:1021B800FB682C2101FB03F313445C331B685A1C96
:1021C8007968FB682C2000FB03F30B445C331A602E
:1021D8007A68FB682C2101FB03F313445C331B680A
:1021E800022B12D97A68FB682C2101FB03F31344F4
:1021F8005C3300221A607A68FB682C2101FB03F328
:102208001344603304221A7073E07A68FB682C2147
:1022180001FB03F31344603302221A70FB685A016E
:102228003B69134403F5A0631B68BB60BB6823F0DC
:102238008043BB60BB6843F00043BB60FB685A0146
:102248003B69134403F5A0631A46BB68136050E06A
:102258007A68FB682C2101FB03F3134461331B7874
:10226800032B22D17A68FB682C2101FB03F313446A
:10227800603302221A70FB685A013B69134403F564
:10228800A0631B68BB60BB6823F08043BB60BB686E
:1022980043F00043BB60FB685A013B69134403F5F4
:1022A800A0631A46BB68136023E07A68FB682C2198
:1022B80001FB03F3134461331B78072B19D17A68A8
:1022C800FB682C2101FB03F313445C331B685A1C85
:1022D8007968FB682C2000FB03F30B445C331A601D
:1022E8007A68FB682C2101FB03F313446033042252
:1022F8001A70FB685A013B69134403F5A0631A4638
:1023080002239360FB68D8B27A68FB682C2101FB32
:1023180003F3134460331B781A460146786805F0C6
:1023280039F983E0FB685A013B69134403F5A0635C
:102338009B6803F01003102B78D17A68FB682C2176
:1023480001FB03F313443F331B78032B22D17A6834
:10235800FB682C2101FB03F313445C3300221A6051
:10236800FB685A013B69134403F5A0631946FB68EF
:102378005A013B69134403F5A063DB6843F0020389
:10238800CB607B681B68FA68D2B21146184602F027
:1023980034FF42E07A68FB682C2101FB03F3134405
:1023A8003F331B78002B09D07A68FB682C2101FB8E
:1023B80003F313443F331B78022B2ED17A68FB6852
:1023C8002C2101FB03F313445C3300221A607B6861
:1023D8001B69002B21D17A68FB682C2101FB03F3D0
:1023E8001344613303221A70FB685A013B69134492
:1023F80003F5A0631946FB685A013B69134403F5CA
:10240800A063DB6843F00203CB607B681B68FA6853
:10241800D2B21146184602F0F0FEFB685A013B6939
:10242800134403F5A0631A461023936000BF1837BE
:10243800BD4680BD80B588B000AF78600B46FB70A4
:102448007B681B68FB61FB69BB61FB787B617B690F
:102458005A01BB69134403F5A0639B6803F00403A6
:10246800042B1AD17B695A01BB69134403F5A06395
:102478001A46042393607B695A01BB69134403F528
:10248800A06319467B695A01BB69134403F5A0632D
:10249800DB6843F00203CB60D1E37B695A01BB6977
:1024A800134403F5A0639B6803F02003202B3FD15E
:1024B8007B695A01BB69134403F5A0631A462023BC
:1024C80093607A687B692C2101FB03F313443D3345
:1024D8001B78012B40F0B3837A687B692C2101FBC0
:1024E80003F313443D3300221A707A687B692C2168
:1024F80001FB03F31344603302221A707B695A010B
:10250800BB69134403F5A06319467B695A01BB698B
:10251800134403F5A063DB6843F00203CB607B68D8
:102528001B687A69D2B21146184602F066FE86E345
:102538007B695A01BB69134403F5A0639B6803F4E4
:102548000073B3F5007F23D17B695A01BB6913443B
:1025580003F5A06319467B695A01BB69134403F567
:10256800A063DB6843F00203CB607B681B687A6971
:10257800D2B21146184602F040FE7B695A01BB6987
:10258800134403F5A0631A464FF40073936056E3AF
:102598007B695A01BB69134403F5A0639B6803F088
:1025A8000103012B51D17A687B692C2101FB03F3CC
:1025B80013445C3300221A607B695A01BB691344D7
:1025C80003F5A0639B6803F04003402B11D17A68A0
:1025D8007B692C2101FB03F313443D3301221A705C
:1025E8007B695A01BB69134403F5A0631A4640236B
:1025F80093607B695A01BB69134403F5A0631946CC
:102608007B695A01BB69134403F5A063DB6843F097
:102618000203CB607B681B687A69D2B21146184600
:1026280002F0EBFD7B695A01BB69134403F5A06313
:102638001A46012393607A687B692C2101FB03F316
:102648001344613301221A70F9E27B695A01BB69AC
:10265800134403F5A0639B6803F04003402B3DD16E
:102668007A687B692C2101FB03F31344613304224C
:102678001A707A687B692C2101FB03F313443D33FC
:1026880001221A707A687B692C2101FB03F3134439
:102698005C3300221A607B695A01BB69134403F555
:1026A800A06319467B695A01BB69134403F5A0630B
:1026B800DB6843F00203CB607B681B687A69D2B29F
:1026C8001146184602F099FD7B695A01BB6913440B
:1026D80003F5A0631A4640239360B0E27B695A0170
:1026E800BB69134403F5A0639B6803F00803082B38
:1026F8002BD17B695A01BB69134403F5A0631A46C1
:10270800082393607B695A01BB69134403F5A063EE
:1027180019467B695A01BB69134403F5A063DB685A
:1027280043F00203CB607B681B687A69D2B211461A
:10273800184602F062FD7A687B692C2101FB03F3DD
:102748001344613305221A7079E27B695A01BB6927
:10275800134403F5A0639B6803F01003102B51D1B9
:102768007A687B692C2101FB03F313445C33002254
:102778001A607A687B692C2101FB03F313446133E7
:1027880003221A707A687B692C2101FB03F3134436
:102798003D331B78002B12D17A687B692C2101FB11
:1027A80003F313443C331B78002B08D17A687B6908
:1027B8002C2101FB03F313443D3301221A707B697A
:1027C8005A01BB69134403F5A06319467B695A0192
:1027D800BB69134403F5A063DB6843F00203CB60D5
:1027E8007B681B687A69D2B21146184602F005FD6B
:1027F8007B695A01BB69134403F5A0631A46102389
:1028080093601CE27B695A01BB69134403F5A0631A
:102818009B6803F08003802B76D17B681B69002BB3
:1028280022D17A687B692C2101FB03F313446133BD
:1028380006221A707B695A01BB69134403F5A06329
:1028480019467B695A01BB69134403F5A063DB6829
:1028580043F00203CB607B681B687A69D2B21146E9
:10286800184602F0CAFC45E07A687B692C2101FB16
:1028780003F313445C331B685A1C79687B692C206A
:1028880000FB03F30B445C331A607A687B692C21E4
:1028980001FB03F313445C331B68022B21D97A68CC
:1028A8007B692C2101FB03F313445C3300221A607B
:1028B8007A687B692C2101FB03F3134460330422FB
:1028C8001A707B69D8B27A687B692C2101FB03F303
:1028D800134460331B781A460146786804F05AFEA0
:1028E80008E07A687B692C2101FB03F31344603309
:1028F80002221A707B695A01BB69134403F5A0636D
:102908001A46802393609AE17B695A01BB69134494
:1029180003F5A0639B6803F48063B3F5806F35D13A
:102928007B695A01BB69134403F5A06319467B69A7
:102938005A01BB69134403F5A063DB6843F0020343
:10294800CB607B681B687A69D2B21146184602F0E0
:1029580054FC7B695A01BB69134403F5A0631A460A
:10296800102393607B695A01BB69134403F5A06384
:102978001A464FF4806393607A687B692C2101FBC7
:1029880003F31344613308221A7058E17B695A0132
:10299800BB69134403F5A0639B6803F00203022B91
:1029A80040F04D817B695A01BB69134403F5A0636C
:1029B80019467B695A01BB69134403F5A063DB68B8
:1029C80023F00203CB607A687B692C2101FB03F3B7
:1029D800134461331B78012B79D17A687B692C21E8
:1029E80001FB03F31344603301221A707A687B6990
:1029F8002C2101FB03F313443F331B78022B0AD02D
:102A08007A687B692C2101FB03F313443F331B785D
:102A1800032B40F0FC807B681B69012B42D17A684C
:102A28007B692C2101FB03F313444C331B68002BF7
:102A380000F0ED807A687B692C2101FB03F31344D5
:102A48004C331B6879687A692C2000FB02F20A442F
:102A5800403212881344013B79687A692C2000FBC4
:102A680002F20A4440321288B3FBF2F33B613B693D
:102A780003F00103002B00F0CA807A687B692C21DF
:102A880001FB03F3134455331B7883F00103D8B2D9
:102A98007A687B692C2101FB03F313445533024602
:102AA8001A70B4E07A687B692C2101FB03F31344A4
:102AB80055331B7883F00103D8B27A687B692C21DF
:102AC80001FB03F31344553302461A709FE07A68FA
:102AD8007B692C2101FB03F3134461331B78032B1F
:102AE80009D17A687B692C2101FB03F31344603315
:102AF80002221A708BE07A687B692C2101FB03F3B0
:102B0800134461331B78042B09D17A687B692C2123
:102B180001FB03F31344603302221A7077E07A68EA
:102B28007B692C2101FB03F3134461331B78052BCC
:102B380009D17A687B692C2101FB03F313446033C4
:102B480005221A7063E07A687B692C2101FB03F384
:102B5800134461331B78062B09D07A687B692C21D2
:102B680001FB03F3134461331B78082B4FD17A68B8
:102B78007B692C2101FB03F313445C331B685A1C4B
:102B880079687B692C2000FB03F30B445C331A60E3
:102B98007A687B692C2101FB03F313445C331B68BF
:102BA800022B12D97A687B692C2101FB03F31344A9
:102BB8005C3300221A607A687B692C2101FB03F3DD
:102BC8001344603304221A7021E07A687B692C214F
:102BD80001FB03F31344603302221A707B695A0124
:102BE800BB69134403F5A0631B68FB60FB6823F013
:102BF8008043FB60FB6843F00043FB607B695A013C
:102C0800BB69134403F5A0631A46FB6813607B692C
:102C18005A01BB69134403F5A0631A460223936063
:102C28007B69D8B27A687B692C2101FB03F31344D2
:102C380060331B781A460146786804F0ABFC00BF85
:102C48002037BD4680BD80B58AB000AF78607B680C
:102C58001B687B627B6A3B627B681B681B6AFB6143
:102C6800FB6903F00F03BB61FB695B0C03F00F0307
:102C78007B61FB691B09C3F30A033B617B69022B78
:102C880003D0052B00F0A980AAE03B69002B00F0D7
:102C9800A6807A68BB692C2101FB03F313444433F3
:102CA8001B68002B00F09B807A68BB692C2101FB14
:102CB80003F3134450331A683B691A447968BB69B3
:102CC8002C2000FB03F30B444C331B689A427AD840
:102CD8007B6818687A68BB692C2101FB03F31344ED
:102CE80044331B683A6992B2194601F00EFE7A68BD
:102CF800BB692C2101FB03F3134444331A683B6975
:102D08001A447968BB692C2000FB03F30B44443355
:102D18001A607A68BB692C2101FB03F31344503312
:102D28001A683B691A447968BB692C2000FB03F3D5
:102D38000B4450331A60BB695A013B6A134403F5CC
:102D4800A0631B69DB0CC3F30903FB607A68BB69EA
:102D58002C2101FB03F3134440331B881A463B69BB
:102D68009A423CD1FB68002B39D0BB695A013B6AB7
:102D7800134403F5A0631B68BB60BB6823F0804362
:102D8800BB60BB6843F00043BB60BB695A013B6A48
:102D9800134403F5A0631A46BB6813607A68BB69DD
:102DA8002C2101FB03F3134454331B7883F00103F4
:102DB800D8B27A68BB692C2101FB03F3134454335E
:102DC80002461A700BE07A68BB692C2101FB03F3F9
:102DD8001344603304221A7001E000BF00E000BF12
:102DE80000BF2837BD4680BD80B586B000AF78608B
:102DF8007B681B687B617B693B613B6903F5886382
:102E08001B68FB603B6903F588631B68BB60BB6894
:102E180023F02E03BB60FB6803F00203022B0BD1E7
:102E2800FB6803F00103012B02D1786804F096FBDC
:102E3800BB6843F00203BB60FB6803F00803082B80
:102E480032D1BB6843F00803BB60FB6803F004039E
:102E5800042B26D17B689B69022B13D1FB6803F4F2
:102E6800C023B3F5802F06D17B681B680221184662
:102E780001F088FE11E07B681B680121184601F00B
:102E880081FE0AE07B68DB68012B06D13B6903F50C
:102E980080631A464EF660235360786804F088FB16
:102EA80002E0786804F092FBFB6803F02003202B13
:102EB80003D1BB6843F02003BB603B6903F588631B
:102EC8001A46BB68136000BF1837BD4680BD0000B6
:102ED80090B585B000AF78607B68002B01D10123E5
:102EE8001FE17B6893F83D30DBB2002B06D17B688D
:102EF800002283F83C207868FDF716FC7B682422C2
:102F080083F83D207B681B687A681268126822F093
:102F180001021A607B681B687A681268126842F4BA
:102F280000421A607B681B687A681268126822F48B
:102F380000421A6001F0E4F9F8607B685B687B4A3C
:102F4800934207D8FB687A4A934294BF012300232F
:102F5800DBB206E0FB68774A934294BF0123002363
:102F6800DBB2002B01D00123DBE0FB68724AA2FB35
:102F780003239B0CBB607B681B687A6812685268E5
:102F880022F03F01BA680A435A607B681A687B6876
:102F98001B681B6A23F03F017B685B6863488342B8
:102FA80002D8BB68013309E0BB684FF4967000FB98
:102FB80003F36248A0FB03039B0901330B4313622D
:102FC8007B6818687B681B68DB6923F44F4222F032
:102FD800FF027B685B6855498B420DD8FB68591E18
:102FE8007B685B685B00B1FBF3F30133C3F30B034E
:102FF800042B38BF04234FE07B689B68002B11D15A
:10300800FB685C1E7B6859680B465B000B44B4FB8D
:10301800F3F30133C3F30B03002B0CBF012300238D
:10302800DBB212E0FB685C1E7B6859680B469B00AC
:103038000B4499000B44B4FBF3F30133C3F30B03C4
:10304800002B0CBF01230023DBB2002B01D001238E
:1030580022E07B689B68002B0ED1FB685C1E7B68B6
:1030680059680B465B000B44B4FBF3F30133C3F31D
:103078000B0343F400430FE0FB685C1E7B68596850
:103088000B469B000B4499000B44B4FBF3F301334C
:10309800C3F30B0343F440431343C3617B681B68CA
:1030A8007A681268126822F0C0017A68D0697A6872
:1030B800126A02430A431A607B681A687B681B68B5
:1030C8009B6823F4034323F0FF0379680869796850
:1030D800C96801430B4393607B681B687A68126870
:1030E800D26822F0FF017A6850697A6892690243CF
:1030F8000A43DA607B681B687A681268126842F0D3
:1031080001021A607B6800221A647B68202283F817
:103118003D207B6800221A637B68002283F83E20EA
:10312800002318461437BD4690BD00BFA086010095
:103138007F841E00FF083D0083DE1B43D34D6210D1
:1031480080B588B000AF78607B68002B01D101237F
:1031580027E17B6893F84130DBB2002B09D17B680B
:10316800002283F840207B68904A5A637868FDF70C
:1031780053FB7B68022283F841207B681A687B68CE
:103188001B68DB6923F47B6323F00F03D3617B683F
:103198001B6802221A627B685B69022B60D07B681D
:1031A800DB68002B02D110237B6101E020237B61C7
:1031B8007B689B68202B02D87B695B007B610120C0
:1031C80001F094F9F8607B681B69B3F5007F25D19D
:1031D8007B68DB68002B10D07B699B00FA68B2FB28
:1031E800F3F213469B0013445B001A467B685B6945
:1031F800B2FBF3F305333B611FE07B69DB00FA6840
:10320800B2FBF3F213469B0013445B001A467B683B
:103218005B69B2FBF3F305333B610EE0FA687B6947
:10322800B2FBF3F213469B0013445B001A467B681B
:103238005B69B2FBF3F305333B613B695C4AA2FB74
:103248000323DB083B613B6903F00103BB613A6977
:10325800BB69D31A5B08FB61BB691B02BB6103E056
:103268000223FB610023BB61FB69012B02D9FB69C7
:10327800FF2B07D97B685B6C43F010027B685A64AC
:1032880001238EE07B681B687A681169BA6911436B
:10329800FA690A431A627B681A687B681B68DB69EB
:1032A80023F47B6323F00F03796848687968896899
:1032B80008437968C96808437968896901430B43F9
:1032C80043F40063D3617B681B6A012B61D17B687F
:1032D800384A5A637B681B68374A934201D1374A98
:1032E80001E04FF040227B681B6833498B4201D1D3
:1032F800324B01E04FF04023DB6923F47B6323F07A
:103308000F03D3617B681B682B4A934201D12B4B77
:1033180001E04FF0402302221A627B681B68264AAC
:10332800934201D1254B01E04FF04023DB697B81BB
:103338007B685B68B3F5007F03D07B685B68002B14
:1033480003D14FF480733B6101E000233B613B698B
:103358009AB27B689B689BB213439AB27B68DB681E
:103368009BB213439AB27B689B699BB213439AB290
:103378007B8913439BB243F400637B817B681B68A2
:103388000D4A934201D10D4B01E04FF040237A8959
:10339800DA617B6800225A647B68012283F8412045
:1033A800002318462037BD4680BD00BFBF34000843
:1033B800CDCCCCCCD53500080038004000340040D6
:1033C80080B483B000AF786000BF0C37BD465DF8AD
:1033D800047B704780B483B000AF786000BF0C37BF
:1033E800BD465DF8047B704780B483B000AF786059
:1033F80000BF0C37BD465DF8047B704780B582B0CE
:1034080000AF78607B681B687A68526A1288DA6055
:103418007B685B6A9A1C7B685A627B685B8D9BB28F
:10342800013B9AB27B685A857B685B8D9BB2002B07
:103438000ED17B681B687A681268526822F0A00275
:103448005A607B68012283F841207868FFF7B8FF4B
:1034580000BF0837BD4680BD80B582B000AF786038
:103468007B68DB6A7A681268D26892B21A807B68D5
:10347800DB6A9A1C7B68DA627B685B8E9BB2013BD5
:103488009AB27B685A867B685B8E9BB2002B0ED102
:103498007B681B687A681268526822F060025A607A
:1034A8007B68012283F841207868FFF793FF00BF0B
:1034B8000837BD4680BD80B586B000AF78607B68B0
:1034C8001B689B687B617B6893F84130DBB2042BF7
:1034D8003AD17B6903F00103012B09D17B681B6892
:1034E8005B6803F04003402B02D17868FFF7B4FF14
:1034F8007B6903F04003402B26D17B681B685B681F
:1035080003F02003202B1FD17B681B687A681268A0
:10351800526822F060025A6000233B617B681B6896
:10352800DB683B617B681B689B683B613B697B6828
:10353800012283F841207B685B6C43F002027B68C0
:103548005A647868FFF750FF7B6893F84130DBB224
:10355800032B36D17B6903F00203022B09D17B6868
:103568001B685B6803F08003802B02D17868FFF743
:1035780045FF7B6903F00803082B22D17B681B6891
:103588005B6803F02003202B1BD17B681B687A68DB
:103598001268526822F0A0025A600023FB607B6820
:1035A8001B689B68FB60FB687B68012283F84120ED
:1035B8007B685B6C43F004027B685A647868FFF7A9
:1035C80013FF00BF1837BD4680BD000080B588B026
:1035D80000AF78607B681B689B68FB617B681B6831
:1035E800A24A934201D1A24B01E04FF040239B68CD
:1035F800BB617B681B685B687B617B681B689B4A57
:10360800934201D19A4B01E04FF040235B683B6144
:103618007B685B68B3F5007F04D07B685B68002B30
:1036280040F09980FB6903F00203022B07D17B6904
:1036380003F08003002B02D0786800F025F9BB69FD
:1036480003F00103012B07D13B6903F04003002B72
:1036580002D0786800F0C6F9BB6903F04003402B3C
:103668003AD13B6903F02003002B35D07B681B68F7
:103678007E4A934201D17E4B01E04FF040237A68A5
:1036880012687A498A4201D1794A01E04FF0402212
:10369800526822F060025A607B681B687A68126878
:1036A800526822F0A0025A600023FB607B681B6806
:1036B800DB68FB607B681B689B68FB60FB687B685A
:1036C800012283F841207B685B6C43F002027B682F
:1036D8005A647868FFF788FEFB6903F00803082B33
:1036E80040F0BE807B6903F02003002B00F0B88017
:1036F8007B681B687A681268526822F0A0025A60D8
:103708007B681B68594A934201D1594B01E04FF03D
:1037180040237A68126855498A4201D1544A01E027
:103728004FF04022526822F060025A600023BB60CA
:103738007B681B689B68BB60BB687B68012283F859
:1037480041207B685B6C43F004027B685A647868AC
:10375800FFF74AFE84E0BB6903F00203022B07D19E
:103768003B6903F08003002B02D0786800F0BEF8B4
:10377800FB6903F00103012B07D17B6903F04003C8
:10378800002B02D0786800F0FBF8FB6903F04003D7
:10379800402B2FD17B6903F02003002B2AD07B68B4
:1037A8001B687A681268526822F060025A607B6867
:1037B8001B682E4A934201D12D4B01E04FF0402364
:1037C8007A68126829498A4201D1294A01E04FF0F2
:1037D8004022526822F0A0025A607B68012283F8D6
:1037E80041207B685B6C43F002027B685A6478680E
:1037F800FFF7FAFDBB6903F00803082B31D13B69D9
:1038080003F02003002B2CD07B681B68174A9342D7
:1038180001D1174B01E04FF040237A681268134931
:103828008A4201D1124A01E04FF04022526822F048
:10383800A0025A607B681B687A681268526822F096
:1038480060025A607B68012283F841207B685B6CC8
:1038580043F004027B685A647868FFF7C5FD00E00E
:1038680000BF00BF2037BD4680BD00BF0038004004
:103878000034004080B483B000AF786000BF0C37DC
:10388800BD465DF8047B704780B582B000AF7860B4
:103898007B681A687B685B6A981C796848621B8831
:1038A800D3607B685B8D9BB2013B9AB27B685A857B
:1038B8007B685B8D9BB2002B13D17B681B687A6891
:1038C8001268526822F0A0025A607B685B8E9BB235
:1038D800002B06D17B68012283F841207868FFF726
:1038E800C9FF00BF0837BD4680BD000080B582B063
:1038F80000AF78607B681B681F4A934201D11F4A5A
:1039080001E04FF040227B685B6A981C7968486246
:103918001B88D3607B685B8D9BB2013B9AB27B6846
:103928005A857B685B8D9BB2002B21D17B681B6815
:10393800114A934201D1114B01E04FF040237A68BC
:1039480012680D498A4201D10C4A01E04FF0402229
:10395800526822F0A0025A607B685B8E9BB2002BF3
:1039680006D17B68012283F841207868FFF782FF3F
:1039780000BF0837BD4680BD003800400034004015
:1039880080B582B000AF78607B68DB6A991C7A6882
:10399800D1627A681268D26892B21A807B685B8EAC
:1039A8009BB2013B9AB27B685A867B685B8E9BB25E
:1039B800002B13D17B681B687A681268526822F062
:1039C80060025A607B685B8D9BB2002B06D17B68D6
:1039D800012283F841207868FFF74CFF00BF0837C1
:1039E800BD4680BD80B582B000AF78607B68DB6A79
:1039F800991C7A68D1627A6812681E498A4201D194
:103A08001D4A01E04FF04022D26892B21A807B68CA
:103A18005B8E9BB2013B9AB27B685A867B685B8E51
:103A28009BB2002B21D17B681B68124A934201D1BB
:103A3800114B01E04FF040237A6812680D498A4221
:103A480001D10D4A01E04FF04022526822F0600295
:103A58005A607B685B8D9BB2002B06D17B68012284
:103A680083F841207868FFF705FF00BF0837BD4697
:103A780080BD00BF003800400034004080B586B0EB
:103A880000AF78607B68002B01D1012364E27B687A
:103A98001B6803F00103002B75D0A34B9B6803F050
:103AA8000C03042B0CD0A04B9B6803F00C03082BD1
:103AB80012D19D4B5B6803F48003B3F5800F0BD1E3
:103AC800994B1B6803F40033002B5BD07B685B6861
:103AD800002B57D101233FE27B685B68B3F5803F39
:103AE80006D1914A904B1B6843F4803313601DE064
:103AF8007B685B68B3F5A02F0CD18B4A8A4B1B6897
:103B080043F480231360884A874B1B6843F480334F
:103B180013600BE0844A844B1B6823F480331360E2
:103B2800814A814B1B6823F4802313607B685B68A0
:103B3800002B13D0FDF744F9386108E0FDF740F990
:103B480002463B69D31A642B01D9032304E2764B5E
:103B58001B6803F40033002BF0D014E0FDF730F9B4
:103B6800386108E0FDF72CF902463B69D31A642B4B
:103B780001D90323F0E16C4B1B6803F40033002BDD
:103B8800F0D100E000BF7B681B6803F00203002B44
:103B980063D0654B9B6803F00C03002B0BD0624B82
:103BA8009B6803F00C03082B1CD15F4B5B6803F484
:103BB8008003002B16D15C4B1B6803F00203002B1B
:103BC80005D07B68DB68012B01D00123C4E156498D
:103BD800554B1B6823F0F8027B681B69DB00134315
:103BE8000B603AE07B68DB68002B20D04F4B01224A
:103BF8001A60FDF7E5F8386108E0FDF7E1F80246DC
:103C08003B69D31A022B01D90323A5E1464B1B6854
:103C180003F00203002BF0D04349434B1B6823F009
:103C2800F8027B681B69DB0013430B6015E03F4B10
:103C380000221A60FDF7C4F8386108E0FDF7C0F803
:103C480002463B69D31A022B01D9032384E1364B80
:103C58001B6803F00203002BF0D17B681B6803F09C
:103C68000803002B30D07B685B69002B16D0304BE3
:103C780001221A60FDF7A4F8386108E0FDF7A0F802
:103C880002463B69D31A022B01D9032364E1264B70
:103C98005B6F03F00203002BF0D015E0244B0022E9
:103CA8001A60FDF78DF8386108E0FDF789F80246DB
:103CB8003B69D31A022B01D903234DE11A4B5B6FE1
:103CC80003F00203002BF0D17B681B6803F00403A8
:103CD800002B00F0A0800023FB75134B1B6C03F036
:103CE8008053002B0FD10023BB600F4A0E4B1B6C77
:103CF80043F0805313640C4B1B6C03F08053BB6080
:103D0800BB680123FB750B4B1B6803F48073002B06
:103D180021D1084A074B1B6843F480731360FDF7F1
:103D28004FF8386111E000BF0038024000004742F8
:103D3800800E474200700040FDF742F802463B699A
:103D4800D31A022B01D9032306E1854B1B6803F420
:103D58008073002BF0D07B689B68012B06D1814AC9
:103D6800804B1B6F43F0010313671CE07B689B6863
:103D7800052B0CD17B4A7B4B1B6F43F00403136765
:103D8800784A784B1B6F43F0010313670BE0754AC1
:103D9800744B1B6F23F001031367724A714B1B6F3F
:103DA80023F0040313677B689B68002B15D0FDF78D
:103DB80007F838610AE0FDF703F802463B69D31AB1
:103DC80041F28832934201D90323C5E0654B1B6F4A
:103DD80003F00203002BEED014E0FCF7F1FF38618A
:103DE8000AE0FCF7EDFF02463B69D31A41F288323C
:103DF800934201D90323AFE05A4B1B6F03F0020330
:103E0800002BEED1FB7D012B05D1564A554B1B6C7F
:103E180023F0805313647B689B69002B00F09B8020
:103E2800504B9B6803F00C03082B5CD07B689B69A4
:103E3800022B41D14C4B00221A60FCF7C1FF3861BC
:103E480008E0FCF7BDFF02463B69D31A022B01D9F3
:103E5800032381E0434B1B6803F00073002BF0D170
:103E680040497B68DA697B681B6A1A437B685B6A2E
:103E78009B011A437B689B6A5B08013B1B041A433E
:103E88007B68DB6A1B0613434B60374B01221A60C1
:103E9800FCF796FF386108E0FCF792FF02463B69A1
:103EA800D31A022B01D9032356E02E4B1B6803F0CB
:103EB8000073002BF0D04EE02B4B00221A60FCF769
:103EC8007FFF386108E0FCF77BFF02463B69D31AA5
:103ED800022B01D903233FE0224B1B6803F0007338
:103EE800002BF0D137E07B689B69012B01D10123BE
:103EF80032E01C4B5B68FB607B689B69012B28D018
:103F0800FB6803F480027B68DB699A4221D1FB6875
:103F180003F03F027B681B6A9A421AD1FA6847F697
:103F2800C07313407A68526A9201934211D1FB68B8
:103F380003F440327B689B6A5B08013B1B049A428E
:103F480007D1FB6803F070627B68DB6A1B069A4244
:103F580001D0012300E0002318461837BD4680BD74
:103F680000700040003802406000474280B584B0CD
:103F780000AF786039607B68002B01D10123CCE069
:103F8800684B1B6803F007023B689A420CD2654BEA
:103F98003A68D2B21A70634B1B6803F007023B6899
:103FA8009A4201D00123B8E07B681B6803F0020342
:103FB800002B20D07B681B6803F00403002B05D07E
:103FC800594A594B9B6843F4E05393607B681B68DC
:103FD80003F00803002B05D0534A534B9B6843F466
:103FE800604393605049504B9B6823F0F0027B6814
:103FF8009B6813438B607B681B6803F00103002BED
:1040080044D07B685B68012B07D1474B1B6803F4DE
:104018000033002B19D101237FE07B685B68022BFA
:1040280003D07B685B68032B07D13F4B1B6803F009
:104038000073002B09D101236FE03B4B1B6803F091
:104048000203002B01D1012367E03749364B9B68F7
:1040580023F003027B685B6813438B60FCF7B0FEB8
:10406800F8600AE0FCF7ACFE0246FB68D31A41F29E
:104078008832934201D903234FE02B4B9B6803F00E
:104088000C027B685B689B009A42EBD1254B1B684E
:1040980003F007023B689A420CD9224B3A68D2B225
:1040A8001A70204B1B6803F007023B689A4201D044
:1040B800012332E07B681B6803F00403002B08D05F
:1040C8001949194B9B6823F4E0527B68DB6813435A
:1040D8008B607B681B6803F00803002B09D012492A
:1040E800114B9B6823F460427B681B69DB00134318
:1040F8008B6000F021F801460B4B9B681B0903F00D
:104108000F030A4AD35C21FA03F3094A1360094BE7
:104118001B681846FCF710FE002318461037BD46EA
:1041280080BD00BF003C024000380240447C0008CB
:1041380000000020040000202DE9F04F8FB000AFF0
:104148000023FB6200237B630023BB6200233B63E5
:10415800624B9B6803F00C03042B07D0082B08D094
:10416800002B40F0B2805E4B3B63B1E05D4B3B639C
:10417800AEE05A4B5B6803F03F03FB62574B5B684A
:1041880003F48003002B4ED0544B5B689B094FF01F
:10419800000440F2FF114FF0000201EA030102EAB5
:1041A80004020B46144660017862786A40EAD360DC
:1041B80078625B013B62D7E908345B1A64EB02045E
:1041C8004FEA841949EA93694FEA8318B8EB030860
:1041D80069EB04094FEAC903FB61FB6943EA5873B9
:1041E800FB614FEAC803BB61D7E9068918EB0108F0
:1041F80049EB02094FEA49237B617B6943EAD853BB
:104208007B614FEA48233B61D7E904894046494628
:10421800FB6A4FF000041A462346FBF7D1FF03461A
:104228000C467B6343E02D4B5B689B094FF0000411
:1042380040F2FF114FF0000201EA030102EA040212
:104248000B4614466001F860F86840EAD360F860ED
:104258005B01BB60D7E902345B1A64EB0204A60178
:1042680046EA93669D01ED1A66EB0406F3007B604F
:104278007B6843EA55737B60EB003B6097E860001E
:104288006D1846EB02064FEA862B4BEA955B4FEA20
:10429800852A55465E4628463146FB6A4FF000049B
:1042A8001A462346FBF78CFF03460C467B630B4BF1
:1042B8005B681B0C03F0030301335B00BB627A6B82
:1042C800BB6AB2FBF3F33B6302E0054B3B6300BF01
:1042D8003B6B18463C37BD46BDE8F08F00380240BE
:1042E8000024F40000127A0080B400AF034B1B686E
:1042F8001846BD465DF8047B704700BF00000020EB
:1043080080B500AFFFF7F0FF0146054B9B689B0A9D
:1043180003F00703034AD35C21FA03F3184680BD70
:1043280000380240547C000880B586B000AF786041
:1043380000237B6100233B617B681B6803F001035A
:10434800002B05D17B681B6803F00403002B35D0D4
:10435800624B00221A60FCF733FD786108E0FCF735
:104368002FFD02467B69D31A022B01D90323B0E043
:104378005B4B1B6803F00063002BF0D158497B6846
:104388005B689A017B689B681B071343C1F88430FC
:10439800524B01221A60FCF713FD786108E0FCF724
:1043A8000FFD02467B69D31A022B01D9032390E043
:1043B8004B4B1B6803F00063002BF0D07B681B6835
:1043C80003F00203002B00F083800023FB60444AC3
:1043D800434B1B6C43F080531364414B1B6C03F03D
:1043E8008053FB60FB683F4A3E4B1B6843F4807375
:1043F8001360FCF7E5FC786108E0FCF7E1FC024695
:104408007B69D31A022B01D9032362E0354B1B6861
:1044180003F48073002BF0D0314B1B6F03F440730F
:104428003B613B69002B2FD07B68DB6803F440724B
:104438003B699A4228D02A4B1B6F23F440733B6197
:10444800294B01221A60284B00221A60244A3B6932
:104458001367234B1B6F03F00103012B14D1FCF7E7
:10446800AFFC78610AE0FCF7ABFC02467B69D31A23
:1044780041F28832934201D903232AE0184B1B6F7B
:1044880003F00203002BEED07B68DB6803F4407373
:10449800B3F5407F0DD11249114B9B6823F4F812F4
:1044A8007B68DB6823F0704323F4407313438B600D
:1044B80005E00B4A0A4B9B6823F4F81393600849FC
:1044C800074B1A6F7B68DB68C3F30B0313430B6757
:1044D800002318461837BD4680BD00BF6800474214
:1044E8000038024000700040400E474280B487B058
:1044F80000AF786000237B6100233B610023FB60F1
:104508000023BB607B68012B3DD1224B9B6803F4E1
:104518000003FB60FB68002B04D0012B2FD11E4B3E
:104528007B612FE01B4B5B6803F48003B3F5800FBE
:1045380008D1184B5B6803F03F03184AB2FBF3F34A
:104548003B6107E0134B5B6803F03F03144AB2FB7F
:10455800F3F33B610F4BD3F884309B09C3F3080393
:104568003A6902FB03F3BB600A4BD3F884301B0F94
:1045780003F00703BA68B2FBF3F37B6102E00023A0
:104588007B6100BF00BF7B6918461C37BD465DF8DC
:10459800047B7047003802400080BB0000127A009C
:1045A8000024F40080B582B000AF78607B68002BEF
:1045B80001D101237AE07B685B6A002B08D17B6814
:1045C8005B68B3F5827F09D07B680022DA6105E079
:1045D8007B6800221A617B6800225A617B6800228E
:1045E8009A627B6893F85130DBB2002B06D17B6866
:1045F800002283F850207868FCF79AFA7B68022238
:1046080083F851207B681B687A681268126822F068
:1046180040021A607B681B687A68526802F48271EB
:104628007A68926802F4044211437A68D26802F404
:10463800006211437A68126902F0020211437A6833
:10464800526902F0010211437A68926902F4007219
:1046580011437A68D26902F0380211437A68126A03
:1046680002F0800211437A68926A02F400520A4307
:104678001A607B681B687A689269120C02F0040160
:104688007A68526A02F010020A435A607B681B6813
:104698007A681268D26922F40062DA617B680022C3
:1046A8005A657B68012283F8512000231846083791
:1046B800BD4680BD84B080B584B000AF786007F196
:1046C8001C0080E80E003B6B012B22D17B689B6BA2
:1046D80023F480327B689A637B68DB6823F4840365
:1046E80023F040037A68D3607B68DB6823F44012C8
:1046F8007B68DA60FB6C012B05D17B68DB6843F4CF
:1047080080127B68DA60786800F04AF90346FB7328
:104718001AE07B68DB6843F040027B68DA607868FF
:1047280000F03EF90346FB733B6C002B06D17B6817
:104738009B6B43F480327B689A6305E07B689B6BD4
:1047480023F480327B689A63BB6A012B0BD17B68A8
:104758009B6843F006027B689A607B689B6843F01D
:1047680020027B689A60FB7B18461037BD46BDE87F
:10477800804004B0704780B483B000AF78607B6835
:104788009B6843F001027B689A60002318460C3747
:10479800BD465DF8047B704780B483B000AF786095
:1047A8007B689B6823F001027B689A6000231846A7
:1047B8000C37BD465DF8047B704780B582B000AF0A
:1047C80078600B46FB707B68DB6823F0C0427B682F
:1047D800DA60FB78012B06D17B68DB6843F0005276
:1047E8007B68DA600BE0FB78002B06D17B68DB681E
:1047F80043F080427B68DA6001E0012303E0322065
:10480800FCF7EAFA002318460837BD4680BD0000C9
:1048180080B485B000AF786039600023FB603B68E6
:104828009B0143F020027B681A61FB680133FB603F
:10483800FB68094A934201D9032306E07B681B6998
:1048480003F02003202BF0D0002318461437BD4670
:104858005DF8047B704700BF400D030080B485B04D
:1048680000AF78600023FB607B6810221A61FB6848
:104878000133FB60FB68094A934201D9032306E030
:104888007B681B6903F01003102BF0D00023184637
:104898001437BD465DF8047B704700BF400D030028
:1048A80080B489B000AFF860B96011461A460B466B
:1048B800FB711346BB80FB687B61BB68FB6197F8A3
:1048C8002830002B1AD1BB8803339B083B61002397
:1048D800BB610FE0FB791A037B69134403F580532E
:1048E8001A46FB691B681360FB690433FB61BB69EB
:1048F8000133BB61BA693B699A42EBD3002318467E
:104908002437BD465DF8047B704780B489B000AF9A
:10491800F860B9601346FB80FB687B61BB68FB618C
:10492800FB8803339B083B610023BB610BE07B6979
:1049380003F580531A68FB691A60FB690433FB614D
:10494800BB690133BB61BA693B699A42EFD3FB6922
:1049580018462437BD465DF8047B704780B485B09F
:1049680000AF78607B685B69FB607B689B69FA686D
:104978001340FB60FB6818461437BD465DF8047B9E
:10498800704780B483B000AF78607B685B6903F0E0
:10499800010318460C37BD465DF8047B70470000DC
:1049A80080B485B000AF78600023FB60FB680133FA
:1049B800FB60FB68134A934201D903231BE07B6821
:1049C8001B69002BF2DA0023FB607B681B6943F04C
:1049D80001027B681A61FB680133FB60FB68094AC6
:1049E800934201D9032306E07B681B6903F00103A6
:1049F800012BF0D0002318461437BD465DF8047B20
:104A0800704700BF400D030084B080B584B000AF8C
:104A1800786007F11C0080E80E007B68BB60BB680B
:104A280003F560631A46002313607B689B6B43F4AD
:104A380000127B689A637B689B6B23F400227B6877
:104A48009A637B689B6B23F480227B689A637B68FC
:104A5800DB6B03F48073002B1AD07B6A012B0BD11C
:104A6800BB6803F580631A46BB6803F580631B685F
:104A780043F00403136016E0BB6803F580631A462D
:104A8800BB6803F580631B6823F0040313600AE026
:104A9800BB6803F580631A46BB6803F580631B682F
:104AA80023F00403136010217868FFF7B1FE7868DB
:104AB800FFF7D4FE0023FB6015E0FB685A01BB68D2
:104AC800134403F5A0631A464FF0FF339360FB6865
:104AD8005A01BB68134403F5A0631A460023D36048
:104AE800FB680133FB603A6AFB689A42E5D801210A
:104AF800786800F0AFF8C820FCF76EF97B680022F0
:104B08009A617B684FF0FF325A617B68DB6B03F474
:104B18008073002B0BD07B684FF400725A627B685D
:104B2800134A9A627B68134AC3F8002109E07B683C
:104B380080225A627B68104A9A627B680F4AC3F8DF
:104B48000021BB6A002B05D17B689B6943F01002EA
:104B58007B689A617B689A69094B13437A68936109
:104B6800002318461037BD46BDE8804004B07047A2
:104B7800000200010003E00080006000E000400047
:104B8800080020A380B485B000AF78600B46FB70A6
:104B98007B68FB60FB6803F580631A46FB6803F5D6
:104BA80080631B6823F003031360FB6803F58063CD
:104BB8001946FB6803F580631A68FB7803F0030362
:104BC80013430B60FB78012B07D1FB6803F5806367
:104BD8001A464BF68033536009E0FB78022B06D166
:104BE800FB6803F580631A4641F270735360002333
:104BF80018461437BD465DF8047B704780B584B00D
:104C080000AF78607B68FB600023BB60FB6803F53E
:104C180088631B68BB60BB6823F02E03BB60FB681E
:104C280003F588631A46BB6843F4807313606420F5
:104C3800FCF7D2F8FB6803F588631A46BB6823F4CF
:104C4800807313600A20FCF7C7F800231846103752
:104C5800BD4680BD80B485B000AF78600B46FB7060
:104C68007B68FB600023BB60FB6803F588631B68F7
:104C7800BB60BB6823F02E03BB60BB6803F48053A2
:104C8800002B0AD1FB78012B07D1FB6803F5886359
:104C98001A46BB6843F480531360BB6803F480531F
:104CA800B3F5805F0AD1FB78002B07D1FB6803F5C9
:104CB80088631A46BB6823F48053136000231846A0
:104CC8001437BD465DF8047B704780B485B000AFEB
:104CD80078607B68FB600023BB60FB6803F5886332
:104CE8001B68BB60BB685B0C03F0030318461437F2
:104CF800BD465DF8047B704780B485B000AF78602E
:104D08007B68FB60FB6803F580639B689BB2184671
:104D18001437BD465DF8047B7047000080B588B045
:104D280000AF7860084611461A460346FB700B46EA
:104D3800BB7013467B700023FB777B683B61FB7875
:104D48005A013B69134403F5A0631A464FF0FF3339
:104D5800936097F82C30032B00F2848001A252F85C
:104D680023F000BF7D4D00082D4E00087D4D000842
:104D7800ED4D0008FB785A013B69134403F5A06325
:104D88001A4640F29D43D36097F90230002B11DA9E
:104D9800FB785A013B69134403F5A0631946FB7875
:104DA8005A013B69134403F5A063DB6843F480733D
:104DB800CB605AE07B68DB6B03F48073002B54D024
:104DC800FB785A013B69134403F5A0631946FB7845
:104DD8005A013B69134403F5A063DB6843F06003A1
:104DE800CB6042E0FB785A013B69134403F5A063AA
:104DF8001A4640F29D63D36097F90230002B36DAE9
:104E0800FB785A013B69134403F5A0631946FB7804
:104E18005A013B69134403F5A063DB6843F48073CC
:104E2800CB6024E0FB785A013B69134403F5A06387
:104E38001A4640F22523D36097F90230002B18DA7E
:104E4800FB785A013B69134403F5A0631946FB78C4
:104E58005A013B69134403F5A063DB6843F4C0734C
:104E6800CB6006E00123FB7704E000BF02E000BF4F
:104E780000E000BF3B6903F5806318463B6903F512
:104E880080639A69FB7803F00F03012101FA03F3A9
:104E9800134383617B689B6943F000727B689A6166
:104EA80097F90230002B03DA4FF40043BB6101E0AD
:104EB8000023BB617868FFF708FFF86097F828308F
:104EC800022B06D1FB68022B03D04FF400337B6121
:104ED80001E000237B61FB785A013B69134403F529
:104EE800A06319467B789B0503F0FE52BB78DB0272
:104EF80003F4F0431A4397F82C309B0403F440233F
:104F08001A433B8EC3F30A031A43BB691A437B69EE
:104F180013430B6097F82C30032B10D1FB785A0100
:104F28003B69134403F5A0631946FB785A013B69B2
:104F3800134403F5A0631B6843F000530B60FB7F29
:104F480018462037BD4680BD80B58CB002AFF860EA
:104F5800B9601346FB71FB683B62BB685B78FB6119
:104F68004FF480737B83FB68DB6B03F48073002B47
:104F78002ED0BB681B79002B2AD1FB79012B18D1C5
:104F8800BB68DB79002B03D0BB68DB79022B10D11F
:104F9800FB695A013B6A134403F5A0631946FB6990
:104FA8005A013B6A134403F5A063DB6823F07003DE
:104FB800CB60FB79002B0BD1BB685B79012B07D148
:104FC800BB685B781946F86800F03EFA0023FCE0FD
:104FD800BB685B69002B18D0BB685B69BA6812892B
:104FE8001344013BBA681289B3FBF2F3FB84FA8CD1
:104FF8007B8B9A420BD97B8BFB84FB8CBA6812891A
:1050080002FB03F2BB681A6101E00123FB84BB6861
:10501800DB78002B07D0FB8CBA68128902FB03F2FD
:10502800BB681A6103E0BB685A69BB681A61FB690F
:105038005A013B6A134403F5A0631846BB681B6911
:10504800C3F31202FB8CD904624B0B401A43BB68B2
:105058009B7A5B0703F0C04313430361FB79002B82
:1050680009D0FB695A013B6A134403F5A0631A4649
:10507800BB68DB6853613B6A03F580639B6803F098
:105088000103002B0CBF01230023DBB27B76FB69F5
:105098005A013B6A134403F5A0631946FB695A0198
:1050A8003B6A134403F5A0631B6823F000530B60AD
:1050B800FB695A013B6A134403F5A0631946FB696F
:1050C8005A013B6A134403F5A0631A687B7E5B07A9
:1050D80013430B60FB695A013B6A134403F5A06351
:1050E8001B683B613B6923F080433B61BB68DB780D
:1050F800002B04D03B6943F400433B6103E03B6968
:1051080023F400433B613B6943F000433B61FB6987
:105118005A013B6A134403F5A0631A463B691360BE
:10512800FB79002B01D000234FE0BB68DB78002B14
:105138004AD1BB685B69002B46D0BB68DB79032B7F
:1051480030D801A252F823F06151000885510008B7
:105158006151000885510008BB685B6903339B08EF
:10516800FB82FA8AFB68DB6A9BB29A421CD9FB680D
:105178009B6943F02002FB689A6115E0BB685B6994
:1051880003339B08FB82FA8A3B6A03F580631B6939
:105198009BB29A420AD9FB689B6943F08062FB681C
:1051A8009A6103E000BF02E000BF00E000BFBB68F7
:1051B800D968BB685A78BB685B6998B200230093CA
:1051C8000346F868FFF76CFB002318462837BD46EE
:1051D80080BD00BF0000F81F80B485B000AF7860C4
:1051E8007B68FB60FB6803F580635B699BB21846CC
:1051F8001437BD465DF8047B704780B489B000AFB2
:1052080078600B46FB707B68BB61FB787B61002391
:10521800FB617B695A01BB69134403F5A0631B68F2
:105228009B0C03F003033B617B695A01BB69134480
:1052380003F5A0631B68DB0F03F00103FB607B68C9
:105248009B6803F02003202B04D1FB68002B01D1BD
:105258000023F2E03B69002B02D03B69022B78D196
:105268007B695A01BB69134403F5A06319467B693E
:105278005A01BB69134403F5A0631B6843F08043DC
:105288000B607B689B6803F02003002B40F0D48000
:105298007B68DB6A03F47F03002B46D17B695A01E4
:1052A800BB69134403F5A06319467B695A01BB69BE
:1052B800134403F5A0631B6823F000430B607B696C
:1052C8005A01BB69134403F5A06319467B695A0167
:1052D800BB69134403F5A0631B6843F000430B60EC
:1052E8007B695A01BB69134403F5A06319467B69BE
:1052F8005A01BB69134403F5A0631B6823F40043F8
:105308000B60FB690133FB61FB69B3F57A7F1ED83B
:105318007B695A01BB69134403F5A0631B6803F05A
:105328000043B3F1004FECD086E07B695A01BB69BA
:10533800134403F5A06319467B695A01BB691344FA
:1053480003F5A0631B6843F000430B6074E000BFE3
:1053580072E07B695A01BB69134403F5A0631946DF
:105368007B695A01BB69134403F5A0631B6843F0CA
:1053780080430B60BB6903F580631B6903F47F03FB
:10538800002B46D17B695A01BB69134403F5A0631E
:1053980019467B695A01BB69134403F5A0631B686E
:1053A80023F000430B607B695A01BB69134403F582
:1053B800A06319467B695A01BB69134403F5A063CE
:1053C8001B6843F000430B607B695A01BB691344B7
:1053D80003F5A06319467B695A01BB69134403F5B9
:1053E800A0631B6823F400430B60FB690133FB6176
:1053F800FB69B3F57A7F1ED87B695A01BB691344F0
:1054080003F5A0631B6803F00043B3F1004FECD031
:1054180012E07B695A01BB69134403F5A06319467E
:105428007B695A01BB69134403F5A0631B6843F009
:1054380000430B6000E000BF002318462437BD4638
:105448005DF8047B7047000080B487B000AF7860D7
:105458000B46FB707B687B61FB783B610123FB603B
:105468003B695A017B69134403F5A0631946FB683D
:10547800DA04124B134043F000430B613B695A01B5
:105488007B69134403F5A0631B68BB60BB6823F00A
:105498008043BB60BB6843F00043BB603B695A0173
:1054A8007B69134403F5A0631A46BB6813600023A5
:1054B80018461C37BD465DF8047B70470000F81F8E
:1054C80080B586B000AF78607B68FB6000237B61A5
:1054D8007868FFF761F910217868FFF799F978681B
:1054E800FFF7BCF900233B611FE03B695A01FB68E9
:1054F800134403F5A0631B68BB60BB6843F080439B
:10550800BB60BB6823F00043BB60BB6823F4004367
:10551800BB603B695A01FB68134403F5A0631A4654
:10552800BB6813603B6901333B613B690F2BDCD9D6
:1055380000233B6134E03B695A01FB68134403F5DF
:10554800A0631B68BB60BB6843F08043BB60BB685B
:1055580043F00043BB60BB6823F40043BB603B6976
:105568005A01FB68134403F5A0631A46BB6813602D
:105578007B6901337B617B69B3F57A7F0CD83B6922
:105588005A01FB68134403F5A0631B6803F000434A
:10559800B3F1004FECD000E000BF3B6901333B6141
:1055A8003B690F2BC7D9FB6803F580631A464FF098
:1055B800FF3353617B684FF0FF325A617868FFF719
:1055C800DAF8002318461837BD4680BD90B589B073
:1055D80004AF7860012302220221786800F068FC99
:1055E8000346FB73FB7BFF2B02D0FB7B012B01D90E
:1055F80002233DE1FB7B1946786800F03DFC034639
:10560800BB73BB7B002B01D0022331E17B68D3F84D
:105618007C43502002F02EFA0346E3617B68D3F8FE
:105628007C33DB69BB60BB68002B01D102231FE11F
:1056380050220021B86802F02DFAFB7B7A681A2103
:1056480001FB03F3134403F24E331B785BB2002BC8
:1056580015DAFB7B7A681A2101FB03F3134403F282
:105668004E331A78BB685A70FB7B7A681A2101FBA3
:1056780003F3134403F554731A88BB685A81BB6853
:105688005B781946786801F036FE03461A46BB680F
:105698001A70BB681978BB6858787B6893F81C4304
:1056A8007B6893F81D33BA685289029203220192EB
:1056B800009323460246786801F0EEFDBB681B782C
:1056C80000221946786802F0FDF8002300220A211A
:1056D800786800F0EDFB0346FB73FB7BFF2B02D0E1
:1056E800FB7B012B01D90223C2E0FB7B7A681A21DC
:1056F80001FB03F3134403F24E331B785BB2002B18
:1057080016DAFB7B7A681A2101FB03F3134403F2D0
:105718004E331A78BB68DA73FB7B7A681A2101FB6F
:1057280003F3134403F554731A88BB685A8315E0CE
:10573800FB7B7A681A2101FB03F3134403F24E330F
:105748001A78BB689A73FB7B7A681A2101FB03F30A
:10575800134403F554731A88BB681A83FB7B7A6871
:105768001A2101FB03F3134403F256331B785BB28F
:10577800002B16DAFB7B7A681A2101FB03F313442A
:1057880003F256331A78BB68DA73FB7B7A681A21FE
:1057980001FB03F3134403F556731A88BB685A8355
:1057A80015E0FB7B7A681A2101FB03F3134403F22B
:1057B80056331A78BB689A73FB7B7A681A2101FB07
:1057C80003F3134403F556731A88BB681A83BB683E
:1057D8009B7B1946786801F08EFD03461A46BB6824
:1057E8005A73BB68DB7B1946786801F084FD034671
:1057F8001A46BB681A73BB68597BBB68987B7B6881
:1058080093F81C437B6893F81D33BA68128B029295
:1058180002220192009323460246786801F03CFD7B
:10582800BB68197BBB68D87B7B6893F81C437B6893
:1058380093F81D33BA68528B0292022201920093A8
:1058480023460246786801F027FDBB68002283F8EA
:105858004C20BB685B7B00221946786802F032F85E
:10586800BB681B7B00221946786802F02BF80023DE
:1058780018461437BD4690BD80B584B000AF786037
:105888007B68D3F87C33DB69FB60FB681B78002BF3
:105898000ED0FB681B781946786801F01CFDFB6880
:1058A8001B781946786801F047FDFB6800221A70DA
:1058B800FB681B7B002B0ED0FB681B7B19467868A6
:1058C80001F009FDFB681B7B1946786801F034FD7F
:1058D800FB6800221A73FB685B7B002B0ED0FB6809
:1058E8005B7B1946786801F0F6FCFB685B7B194620
:1058F800786801F021FDFB6800225A737B68D3F8B1
:105908007C33DB69002B0BD07B68D3F87C33DB69F5
:10591800184602F0B7F87B68D3F87C330022DA61C6
:10592800002318461037BD4680BD80B584B000AF4F
:1059380078607B68D3F87C33DB69FB60FB684033B5
:105948001946786800F0B1F80346FB72FB7A002B21
:1059580005D17B68D3F8D433022178689847FB7A5D
:1059680018461037BD4680BD80B584B000AF78605A
:105978000123FB730023BB737B68D3F87C33DB699B
:10598800BB60BB6893F84C30042B77D801A252F85F
:1059980023F000BFB1590008B7590008E7590008BB
:1059A8005B5A0008695A00080023FB736DE0BB6866
:1059B8009B6C1946786800F097F80346BB73BB7B6D
:1059C800002B04D1BB68022283F84C2058E0BB7B33
:1059D800012B55D0BB68042283F84C2050E0BB68EB
:1059E80040331946786800F060F80346BB73BB7B08
:1059F800002B26D1BB68002283F84C20BB6893F8A3
:105A08004420BB689B6C1B799A423BD1BB6893F8D6
:105A18004620BB689B6C9B799A4233D1BB6893F84C
:105A28004520BB689B6C5B799A422BD1BB681A6C8A
:105A3800BB689B6C1B689A4224D1786800F05AF9BD
:105A480020E0BB7B012B1DD0BB68042283F84C20CF
:105A580018E0786800F067F8786800F0DCF814E07F
:105A68000021786800F0E5FF0346BB73BB7B002B81
:105A78000AD1BB68002283F84C2005E000BF04E08F
:105A880000BF02E000BF00E000BFFB7B18461037F4
:105A9800BD4680BD80B483B000AF7860002318464F
:105AA8000C37BD465DF8047B704780B582B000AF07
:105AB800786039607B68A1221A747B6821225A7445
:105AC8007B6800225A827B6800229A827B680722C0
